:020000040800F2
:1000000070190020D50200081F1A0008171A0008EE
:100010001B1A00083B190008AB2000080000000074
:10002000000000000000000000000000D91B0008D4
:100030003F19000800000000AD1A0008F11C00087C
:10004000EF020008EF020008EF020008EF020008CC
:10005000EF020008EF020008EF020008EF020008BC
:10006000EF020008EF020008EF020008EF020008AC
:10007000EF020008EF020008EF020008EF0200089C
:10008000EF020008EF020008EF020008EF0200088C
:10009000EF020008EF020008EF020008EF0200087C
:1000A000EF020008EF020008EF020008EF0200086C
:1000B000EF020008EF020008EF020008EF0200085C
:1000C000EF020008EF020008EF020008EF0200084C
:1000D000EF0200085D1D0008E51D00086D1E000808
:1000E000EF020008EF020008EF020008EF0200082C
:1000F000EF020008EF020008EF020008EF0200081C
:10010000EF020008EF020008EF020008EF0200080B
:10011000EF020008EF020008EF020008EF020008FB
:10012000EF020008EF020008EF020008EF020008EB
:10013000EF020008EF020008EF020008EF020008DB
:10014000EF020008EF020008EF020008EF020008CB
:10015000EF020008EF020008EF020008EF020008BB
:10016000EF020008EF020008EF020008EF020008AB
:10017000EF020008EF020008EF020008EF0200089B
:10018000EF020008EF02000800F002F800F092F819
:100190000AA090E8000C82448344AAF10107DA45E2
:1001A00001D100F087F8AFF2090EBAE80F0013F0A2
:1001B000010F18BFFB1A43F001031847802200000B
:1001C000A0220000103A24BF78C878C1FAD852079C
:1001D00024BF30C830C144BF04680C6070470000C1
:1001E0000023002400250026103A28BF78C1FBD840
:1001F000520728BF30C148BF0B6070476E2900F01E
:100200008181702900F0C382662902F0A8806529E7
:1002100002F0A580672902F0A2806129AFF3008077
:1002200003681B0A28BF41F08001692900F02E8174
:10023000642900F02B81752900F028816F2900F0D6
:100240005182782900F08F82E92900F0EB81E429BE
:1002500000F0E881F52900F0E581EF2900F04E82F9
:10026000F82900F08E820368DB0928BF41F0800185
:10027000632900F03786732900F03C86E32900F0FB
:100280004786F32900F04C86002070471FB502F026
:1002900061F800F097FE04000020002102F044F80D
:1002A000401C60600020002102F028F8E0601FBDC3
:1002B00010B510BD00F058FE1146FFF7E7FF01F042
:1002C00077FF00F031FF03B4FFF7F2FF03BC01F04A
:1002D0000DFF00000948804709480047FEE7FEE798
:1002E000FEE7FEE7FEE7FEE7FEE7FEE7FEE7FEE7E6
:1002F00004480549054A064B70470000F51C0008F4
:10030000890100087013002070190020701500206A
:1003100070150020704700001CB50C46064B7B444E
:1003200069460090204600F006F904460020694620
:1003300000F014F920461CBD3B02000010B5431C20
:1003400002E010F8011B71B18107FAD14FF00132C0
:1003500002C88C1A8C4314EAC211F9D0C01A0A06DA
:1003600003D0C01E10BDC01A10BD0A0401D0801EEB
:1003700010BD0902FCD0401E10BD4FF00002042940
:10038000C0F0128010F0030C00F0D282CCF1040C0B
:10039000BCF1020F18BF00F8012BA8BF20F8022BF8
:1003A000A1EB0C0100F0C4BA5FEAC17C24BF00F8E5
:1003B000012B00F8012B48BF00F8012B7047704754
:1003C00070477047704770B5044685690068C1067C
:1003D00001D5302600E02026C00707D070BDD4E943
:1003E000012130469047206A401C20626D1EF6D5E0
:1003F00070BD70B5044685690078C00707D170BD2F
:10040000D4E9012120209047206A401C20626D1E03
:10041000F6D570BD09684A0501D540B27047C905D7
:10042000FCD500B2704709684A0501D5C0B27047D3
:10043000C905FCD580B2704770B50C460546012A47
:1004400005D02878800600D5EA69002302E0012360
:1004500005E05B1C934202D2E05C0028F9D1A86958
:10046000E618C01AA861286A184428622846FFF7CF
:10047000AAFF04E0D5E9012114F8010B9047B4422A
:10048000F8D32846FFF7B5FF70BD00002DE9F04115
:100490000646002410687529314616A510D0FFF7CE
:1004A000B9FF002802DA404213A507E031688A0745
:1004B00001D512A502E0490704D511A5012401E0E8
:1004C000FFF7B1FF00210A2206F1240709E0B0FB83
:1004D000F2FCB0FBF2F302FB1C00303078541846FB
:1004E000491C0028F3D123462A463046BDE8F04196
:1004F00000F088BA000000002D0000002B00000072
:100500002000000011680268006A530501D50870D8
:100510000AE0D30501D5088006E0130603D5C2170B
:10052000C1E9000200E008600120704701694A1C2F
:1005300002610878704700B58FB0CDE90131002124
:10054000059105497944CDE903101146684600F04C
:1005500029F90FB000BD0000E5FFFFFF0A6802F8AF
:10056000010B0A60704700002DE9FF5F15468A46BF
:100570000446DFF8AC80F8440027D8E900103E4676
:10058000CDE9001010E03AF816106A4602A800F013
:10059000CBFC411C07D02178890603D5E2693918C4
:1005A00091420DD80744761C2078800602D5E06978
:1005B000B84205DDAE42E6DB3AF816000028E2D18B
:1005C000A069C01BA0612046FFF7FDFED8E900101E
:1005D000CDE90010002017E03AF818106A4602A88A
:1005E00000F0A2FCB0F1FF3F81460BD000250DF1D9
:1005F000080B05E0D4E901211BF8050090476D1CAC
:100600004D45F7D308F10100B0428046E4DB206A93
:10061000384420622046FFF7ECFEBDE8FF9F000053
:10062000EA1D00002DE9F0418046D21D22F00702AC
:100630000025D2E90002F52915A614D0011E72F199
:10064000000106DA0023D0EB030063EB020211A6DF
:1006500008E0D8F800108B0701D50FA602E0490783
:1006600001D50EA601251146002408F1240704E057
:1006700000F083F930323A55641C50EA0102F7D198
:100680002B46324621464046BDE8F04100F0BAB95B
:10069000000000002D0000002B00000020000000E2
:1006A00030B4002100F1240408E002F00705D2086C
:1006B000303542EA4372DB086554491C52EA0305AF
:1006C000F3D10468002310A2250708D504F0200404
:1006D0000C4304D0C46901230CA2641EC46130BC65
:1006E00000F090B910B5044621461068FFF79BFE54
:1006F00002462046BDE810400023D1E7D21D22F07B
:100700000701D1E90023CBE7000000003000000022
:10071000F0B40D460188090502D5214C7C4402E065
:100720001F4C7C440E34002100F1240608E002F046
:100730000F071209E75D42EA03721B097754491C4F
:1007400052EA0307F3D102780023120704D5702D73
:1007500006D009B1022311342246F0BC00F052B990
:1007600001231034F8E770B504460D4621461068A1
:10077000FFF759FE024629462046BDE87040002397
:10078000C6E7D21D22F00703D3E90023C0E70368C0
:10079000126843F0200303600823C3610023B7E716
:1007A0004C1C00002DE9F05F894604464FF0000A1A
:1007B000DFF874B1FB44C0F820A02046E168884708
:1007C000002874D0252806D0D4E901219047206A5A
:1007D000401C2062F1E700265F462046E16888471A
:1007E0002028054607DB312D05D2781910F8200C9A
:1007F00008B10643F1E7B00701D526F00406C4F8B6
:100800001CA00027C4F818A02A2D09D0284601F002
:1008100066FC38B304EB8708303DC8F8185019E07F
:1008200059F8041B204604EB87029161E168884770
:10083000012F054618D1E069002820DA26F02006AD
:100840001DE0D8F8180000EB800005EB40003038C0
:10085000C8F818002046E1688847054601F03FFCCB
:100860000028EED1012F0AD02E2D08D12046E168B4
:1008700088477F1C0546022F46F02006C4DBA0698E
:10088000002803DA404246F00106A061F00701D0DB
:1008900026F010066C2D0BD0682D09D04C2D39D0C8
:1008A0006A2D35D0742D35D07A2D33D016E038E04E
:1008B000E1682F4620468847B842054609D16C2F8B
:1008C00026D04FF48060E1680643204688470546FD
:1008D00004E06C2F1AD04FF4807006430DB3A5F1DD
:1008E0004100192802D8203546F400664A462946B8
:1008F000204626604E46FFF781FC80B101280BD0D0
:10090000F61D26F0070000F1080956E74020E4E74D
:100910008020D8E70020D6E706F104094DE72846F5
:1009200052E7206ABDE8F09FDC1B00004FF0000298
:1009300000B5134694469646203922BFA0E80C50D5
:10094000A0E80C50B1F12001BFF4F7AF090728BFB0
:10095000A0E80C5048BF0CC05DF804EB890028BF2C
:1009600040F8042B08BF704748BF20F8022B11F055
:10097000804F18BF00F8012B704730B5B0F10A0264
:100980004FEA900E71F100034EEA817EB0EB0E004B
:1009900061EB91014FEA101E4EEA017E10EB0E0052
:1009A00041EB11114FEA102E4EEA016E10EB0E00D2
:1009B00041EB11214FEA104E4EEA014E10EB0E00B2
:1009C00041EB1141401841F100014FEAD00040EAEB
:1009D00041704FEAD10110EB80054FEA810444EAEF
:1009E000907444EB01046D1944EB0404521BA341C1
:1009F0004FF0000348BF0A3200D530BD401C41F122
:100A0000000130BD2DE9F0470D4699469246044657
:100A100000F124080168880604D5E06921F010017E
:100A2000216000E00120A84201DD471B00E0002713
:100A3000A1697A1902EB0900081AA0612078C006A2
:100A400002D42046FFF7BFFC002608E0D4E90121CC
:100A50001AF806009047206A401C761C20624E451A
:100A6000F4DB2078C0060AD52046FFF7ACFC06E090
:100A7000D4E9012130209047206A401C2062381EB2
:100A8000A7F10107F4DC07E0D4E9012118F805001B
:100A90009047206A401C2062281EA5F10105F3DC66
:100AA0002046FFF7A6FC2078000602D50220BDE80C
:100AB000F0870120FBE770472DE9FF4F0C461E46EB
:100AC0004FF0FF378BB0D2E90001DDF860800A906B
:100AD0008A46C1F30A5505B93D46002108464FF044
:100AE0000000BAF1000F00F4400005DA00EB8000CE
:100AF0004FF4400101EA50004FEA9059B9F1010F5B
:100B000000DDB9460A9850EA4A000ED044F610506B
:100B1000A5F2FF3545432F14B8F1000F1ED07542E2
:100B2000291E1EDDC9F100021CE0B8F1010F4FF0D3
:100B3000000001D0302103E0F24305E02154401CC5
:100B4000B042FBDB30460022002121540B99C1F852
:100B50000880C1E900200FB0BDE8F08FBD1B6D1CFF
:100B6000DEE74A4600DA694206A800F06FFA06ABF3
:100B700093E8070003AB83E8070050460A9900F0AA
:100B800021FB8DE80700A0F500501F380090039866
:100B9000002D09DD42F21F014A46084403A90390D3
:100BA000684600F080FD08E0A0F500504A461F3876
:100BB00003A90390684600F08AFD8DE80700000451
:100BC000000C03D04FF0FF30410800E01046B8F1B0
:100BD000000F03D00022009215461EE0751E05D4BA
:100BE000FFF7CBFE303262556D1EF9D5B3460122B8
:100BF000084302D000227F1C04E02078302801D175
:100C000000227F1E002A099786D01DE0112D07DAE9
:100C1000FFF7B3FE303262556D1C50EA0102F5D188
:100C2000084302D00098C8B10EE00021681E05E01C
:100C3000235C625C63542254401E491C8142F7DBF2
:100C4000AB46A81B401E0990002004F80B000B982F
:100C5000099AC0F80880C0E9002B7CE711264FF004
:100C6000000859E72DE9F04F88460446D21D22F0CE
:100C7000070191B0D1E90001CDE90A0101F017FAAD
:100C800002460B98C00F01D02D2007E02068810795
:100C900001D52B2002E0202101EAC000032A09909F
:100CA00001D0072A05DB03464146204600F08EF9B5
:100CB0000BE12078800601D5E06900E00620B8F15C
:100CC000650F814606D0B8F1660F18D0B8F1670FEE
:100CD00070D131E00020B9F1110F009001DB112338
:100CE00001E009F101030AAA01A90CA8FFF7E4FE3B
:100CF000DDE90C70002609F10105834647E001207B
:100D00004B4600904FF000470AAA01A90CA8FFF734
:100D1000D3FEDDE90DB00C995D46002610B909F14E
:100D200001000D18B9EB050003D4C0F1FF3609F13D
:100D30000105A5EB09002BE0B9F1010F01DA4FF035
:100D400001090020B9F1110F0090484601DD11237F
:100D500000E003460AAA01A90CA8FFF7ADFEDDE9F1
:100D60000C704D4600268346207800070AD4AB4518
:100D700000DA5D4601A8012D04DD411911F8011CBE
:100D8000302907D04F4502DA17F1040F04DA0120A9
:100D900082460FE06D1EEEE7002F02DCED1B3E44A5
:100DA00003E0781CA84200DD7D1CB81B00F1010A9D
:100DB0004FF000472078000703D4AA4501DB4FF02D
:100DC000FF3A0021B7F1004F0DF143088DF84310B1
:100DD00024D002202B23002F01DA7F422D230A2169
:100DE000021EA0F1010000DC5FB197FBF1FC97FB54
:100DF000F1F201FB1C7C17460CF1300C08F801CD18
:100E0000EEE7A8F1010003702188090501D545210D
:100E100000E06521A0F1010800F8011C09980FA964
:100E2000A1EB0807FF1D00B10120411901EBEA7099
:100E3000A1693844081A401EA0612078C00602D477
:100E40002046FFF7C0FA099828B1D4E9012190475C
:100E5000206A401C20622078C00622D52046FFF779
:100E6000B2FA1EE0002E04DBB34502DD01A8805D6E
:100E700000E03020D4E901219047206A401C206224
:100E8000761CAAF101005FEA000A0AD100F09AF884
:100E9000C0680168405CD4E901219047206A401C89
:100EA0002062281EA5F10105DCDC07E0D4E9012160
:100EB00018F8010B9047206A401C2062381EA7F1E9
:100EC0000107F3DC2046FFF794FA032011B043E654
:100ED00010B5436913B1AFF3008001E0FFF7ACFA3E
:100EE000012010BD127800F124010A7000224A701E
:100EF0000122EDE711684FF0FF32E9E710B54369D1
:100F000013B1AFF3008001E0FFF72EFB012010BD0D
:100F1000128800F1240182840022C2840122EDE7BC
:100F200011684FF0FF32E9E770B516460C460546EA
:100F300000F040F8036893F80101012806D0FF2C67
:100F40000FD8185D68B101202C7070BDD3F807016F
:100F50003246214603F2071303442846BDE8704099
:100F600018474FF0FF3070BD754600F0E7F8AE4609
:100F700005006946534620F00700854618B020B5A5
:100F8000FFF7B6F9BDE820404FF000064FF000072C
:100F90004FF000084FF0000B21F00701AC46ACE821
:100FA000C009ACE8C009ACE8C009ACE8C0098D468E
:100FB0007047000010B500F005F8001D10BD00BF1F
:100FC0006913000000487047301300202DE9F041FC
:100FD0001F46044603260168072A01F4006004DB6B
:100FE00008B116A505E016A503E008B115A500E0B7
:100FF00015A521F010002060A069C01EA0610FB1EE
:10100000401EA0612046FFF7DEF94FB1D4E901216F
:1010100038469047206A401C2062C01C206206E0CF
:10102000206AFAE7D4E9012115F8010B9047761EF2
:10103000F8D22046FFF7DDF9BDE8F0814E414E00C1
:101040006E616E00494E4600696E66002DE9F047FC
:10105000814616468AB0334878440DC88DE80D00A5
:1010600030487844801C03AC0DC884E80D0041F67C
:101070009B300844372190FBF1F290FBF1F5A5F18C
:10108000800501FB12041B3C02D56442012000E0F4
:101090000020DFF890A080460027FA44AAF1BE0A9B
:1010A0000DE0E00709D03246684607EB47010AEB3E
:1010B000810100F00CFB8DE8070064107F1C002C00
:1010C000EFD1184F7F44AC3F18E0E80714D007EB8E
:1010D00004100DF1180A90E80E008AE80E00C068AE
:1010E000F04201D198190890324606A903A800F0F1
:1010F000EEFA03AB83E807006D10641C002DE4D109
:1011000032466946B8F1000F03A802D000F0CBFACE
:1011100001E000F0DCFAC9E90001C9F808200AB0D2
:10112000BDE8F087C813000010B50446AFF3008097
:101130002046BDE81040FFF7C6B8000000487047E1
:10114000101300204FF0013C50F8042B51F8043BE1
:101150009A4221D1A2EB0C03934313EACC1317D18B
:1011600050F8042B51F8043B9A4215D1A2EB0C0322
:10117000934313EACC130BD150F8042B51F8043BE2
:101180009A4209D1A2EB0C03934313EACC13DBD0B0
:101190004FF00000704700BFD01A01BAB1FA81F1D8
:1011A00001F0180122FA01F0CB40C1F12001DBB2BD
:1011B000C0B2C01A2CFA01F3D11A914311EAC3113B
:1011C000E6D170475FEA400C08BF91F0000F4FEA8C
:1011D0008C234FEAC12243EA51514FEA1C5018BFF9
:1011E00000F5F0404FEA300018BF41F000415FEADF
:1011F0006C5C00F02980BCF1FF3F08BF40F08040EC
:101200007047130C06BF12044FF0100C4FF0000C87
:10121000130E04BF12020CF1080C130F04BF1201CD
:101220000CF1040C930F04BF92000CF1020CD30FCD
:1012300004BF52000CF1010C11464FF00002A0F166
:101240001F00A0EB0C00704711F0004F08BF704763
:1012500031F000413FF4D5AF0B0C06BF09044FF04D
:10126000100C4FF0000C0B0E04BF09020CF1080C1F
:101270000B0F04BF09010CF1040C8B0F04BF890094
:101280000CF1020CCB0F04BF49000CF1010CCCF1A6
:101290002003A0EB0C0022FA03F302FA0CF241EA5D
:1012A000030100F10100704720F07F4C80EA030049
:1012B00023F07F47ACEB070303F57C5300F00040BD
:1012C00003F1FF032DE980494FEA154B09B44FEABA
:1012D000144325EA0B4E24EA03480FF2042606EBDA
:1012E000132749083E785FEA320203FB0667C7F519
:1012F000000707FB06F64FEA54374FEAD64606F1D9
:10130000020607FB066CCCF1005C4FEA1C472CEA96
:10131000074C07FB06F40CFB06F504EB15464FEAF9
:10132000961634BF00204FF000404FEAD13706FB3D
:1013300007FC4FEA1C4C0CFB0BF7D21B03FB0CF712
:1013400061EB07010CFB0EF7B0EB074072EB1742A5
:101350000CFB08F734BFA2EB0742B2EB074261EB8C
:1013600017414FEA0C444FEA910706FB07FC4FEA8E
:101370001C4C0CFB0BF7B0EBC74072EB573203FB76
:101380000CF734BFA2EBC742B2EBC74261EB573157
:101390000CFB0EF7B0EBC70072EB57720CFB08F7B3
:1013A00034BFA2EBC702B2EBC70261EB5771039FD8
:1013B0004FEA816141EA921104EBCC044FEAD13744
:1013C0004FEA826206FB07FC42EA90124FEA806015
:1013D0004FEA1C4C0CFB0BF7D21B03FB0CF761EB29
:1013E00007010CFB0EF7B0EB074072EB17420CFB4A
:1013F00008F734BFA2EB0742B2EB074261EB17419B
:101400004FEA8C554FEA910704EB9C2406FB07FC3E
:101410004FEA1C4C0CFB0BF7B0EBC74072EB57329A
:1014200003FB0CF734BFA2EBC742B2EBC74261EB40
:1014300057310CFB0EF7B0EBC70072EB57720CFB89
:1014400008F734BFA2EBC702B2EBC70261EB5771DA
:1014500015EB4C254FEA816141EA92114FEA826215
:101460004FEAD13742EA901206FB07FC44F1000430
:101470004FEA80604FEA1C4C0CFB0BF7D21B03FBBE
:101480000CF761EB07010CFB0EF7B0EB074072EBBA
:1014900017420CFB08F734BFA2EB0742B2EB07423E
:1014A00061EB174115EB1C154FEA813141EA92417E
:1014B0004FEA823242EA90424FEA80304FEA0C769D
:1014C00044F1000448EA03434EEA0B484FF0000E93
:1014D000B2EB080C71EB030724BF624639464EEBB2
:1014E0000E0E4FF0000B0018524149414BEB0B0B15
:1014F000B2EB080C71EB03077BF1000B24BF6246D3
:1015000039464EEB0E0E4FF0000B00185241494188
:101510004BEB0B0BB2EB080C71EB03077BF1000BF1
:1015200024BF624639464EEB0E0E51EA020718BF41
:1015300046F0010616EB0E7655F1000254F100015B
:1015400003D5BDE88901BDE80088BDE88901BDE893
:101550000048B619524141EB0101A3F10103704764
:1015600080807F7E7D7C7B7A7978777676757473E0
:10157000727171706F6E6E6D6C6C6B6A6A6968689F
:10158000676666656464636362616160605F5F5E35
:101590005E5D5D5C5C5B5B5A5A59595858575756AB
:1015A0005655555554545353525252515150505010
:1015B0004F4F4F4E4E4D4D4D4C4C4C4B4B4B4A4A62
:1015C0004A494949484848474747474646464545A6
:1015D00045444444444343434342424242414141DF
:1015E000002B26D4770021D01CB54FEA370703B46F
:1015F0004FF010004FF010014FF000000FBCBDE89D
:1016000010400BF1010BBBF1010F08BF5FEA170798
:1016100022BF12F1010211F101014FF0004143F12B
:10162000000300F0004043EA00007047F9D3570878
:10163000DAE746EA064613F1400F4FEA16461FDD89
:1016400013F1200FDFBF16430A46002120335B420F
:10165000C8D0C3F1200746EA064602FA07F74FEA68
:10166000164646EA0706C3F1200722FA03F201FAFA
:1016700007F721FA03F14FF0000342EA0702B1E74E
:1016800046EA020646EA06464FEA164646EA0106DA
:10169000BCBF46EA0646360C4FF000034FF000028E
:1016A0004FF000019EE72DE9C048934630B491E821
:1016B000380007C831EA400C48BF34EA430C03D570
:1016C000FFF7F2FDFFF78CFFF0BCBDE800882DE9C5
:1016D000C048934630B491E8380007C810F0804FF6
:1016E00008BF13F0804F03D100F005F8FFF778FF33
:1016F000F0BCBDE8008820F07F4780EA030023F0BB
:101700007F4C07EB0C03A3F57C5300F00040A3F1E2
:10171000FE0392F0000F00F0B38095F0000F00F090
:1017200077802DE901494FEA11404FEA144621EA3A
:10173000004800FB06FC24EA064708FB06F607FB08
:1017400008F800FB07F718EB06484CEB164C4FEA7D
:10175000124B18EB07484FEA15464CEB174022EAAC
:101760000B4E0BFB06FC25EA06470EFB06F607FBB5
:101770000EFE0BFB07F71EEB064E4CEB164C4FF024
:1017800000061EEB074E4CEB174B18EB0B0840F115
:10179000000018EB0E0B58EB000840F100008F1A08
:1017A0004FF000013CBFC943661B14BFB5EB040CEE
:1017B00000213CBFC943F61B4FEA17444EEA8E0E88
:1017C00027EA04454FEA1C4704FB07622CEA074C52
:1017D00005FB07F70CFB05F604FB0CFC16EB0746B4
:1017E00042EB174216EB0C4642EB1C421BEB060683
:1017F00058EB0202414146EA9E0601D5BDE8018947
:10180000B619524141EB0101A3F10103BDE8018981
:101810004FEA14454FEA114724EA054621EA074CEE
:1018200005FB07F406FB07F70CFB06F105FB0CFCB8
:1018300011EB074144EB17444FEA124711EB0C41FF
:1018400044EB1C4422EA074C05FB07F206FB07F7B2
:101850000CFB06F605FB0CFC16EB074642EB1742A9
:1018600016EB0C4642EB1C456A1854F1000148BFC8
:101870007047B619524141EB0101A3F101037047D2
:1018800095F0000F37D04FEA11424FEA144721EA92
:10189000024624EA074C02FB07F106FB07F70CFBA4
:1018A00006F402FB0CFC14EB074441EB17414FEA32
:1018B000154714EB0C4441EB1C4125EA074C02FB95
:1018C00007F506FB07F70CFB06F602FB0CFC16EB14
:1018D000074645EB174516EB0C4645EB1C42121923
:1018E00051F1000148BF7047B619524141EB010167
:1018F000A3F1010370474FEA14454FEA114724EA68
:10190000054621EA074C05FB07F106FB07F70CFB30
:1019100006F24FF0000605FB0CFC12EB074241EB10
:10192000174112EB0C4251EB1C4148BF7047921813
:1019300041EB0101A3F10103704700BFFEE77047CF
:10194000F0B50A4600210023002400BF3DE0012538
:1019500005FA01F3156805EA03049C4234D10568D1
:101960004F000326BE40B543056015794E00B540D3
:101970000668354305601579012D02D01579022DD1
:1019800016D185684F000326BE40B5438560557962
:101990004E00B540866835438560456801268E4017
:1019A000B5434560456896798E40B6B2354345608B
:1019B000C5684F000326BE40B543C560D5794E00CB
:1019C000B540C6683543C560491C1029BFD3F0BD7A
:1019D000F0B5002300244D07ED0E02FA05F3CE10FA
:1019E00000F1200555F826504E07F70E0F26BE4091
:1019F000B543CF1000F1200646F82750CE1000F175
:101A0000200555F8265045EA0304CE1000F12005C4
:101A100045F82640F0BD00BFFEE700BFFEE7704777
:101A200070B5002100230F22C4781CB3174C246822
:101A300004F4E064C4F5E064C4F30721C1F10404D4
:101A4000E3B20A4144789C40E1B2847814402143D7
:101A50000C07210E0E4C05786155047804F01F0523
:101A60000124AC4005786D11AD0005F1E025C5F805
:101A7000004109E0047804F01F050124AC40054D45
:101A80000678761145F8264070BD00000CED00E0A8
:101A900000E400E080E100E002490143024A1160F5
:101AA000704700000000FA050CED00E070470000F0
:101AB00029B1064A12680243044B1A6004E0034A43
:101AC00012688243014B1A607047000030380240B0
:101AD00029B1064A12680243044B1A6004E0034A23
:101AE00012688243014B1A6070470000443802407C
:101AF000F0B5002100220024022500260223324FE7
:101B00003F6807F00C0121B1042905D0082937D11D
:101B100005E02E4F076036E02D4F076033E02A4F77
:101B20003F1F3F68C7F38056274F3F1F3F6807F0AE
:101B30003F036EB1264FB7FBF3F7DFF88CC0ACF173
:101B4000040CDCF800C0CCF3881C07FB0CF40CE0A0
:101B50001E4FB7FBF3F7DFF870C0ACF1040CDCF8F4
:101B600000C0CCF3881C07FB0CF4174F3F1F3F68E5
:101B7000C7F301477F1C7D00B4FBF5F7076002E067
:101B8000124F076000BF00BF0F4F3F6807F0F00122
:101B90000909104F7A5C0768D74047600A4F3F68D1
:101BA00007F4E051890A0B4F7A5C4768D740876099
:101BB000054F3F6807F46041490B064F7A5C476860
:101BC000D740C760F0BD0000083802400024F40090
:101BD00000127A000E000020704700000CB50020B3
:101BE000019000903448006840F480303249086029
:101BF00000BF3148006800F4003000900198401C9C
:101C00000190009818B90198B0F5A04FF1D12A4879
:101C1000006800F4003010B10120009001E00020C5
:101C200000900098012846D123484030006840F0D9
:101C300080502149403108602048006840F440400D
:101C40001E4908601C48083000681B4908310860BC
:101C50000846006840F4004008600846006840F408
:101C6000A05008601648091F0860081F006840F06F
:101C70008070091F086000BF0F48006800F0007006
:101C80000028F9D040F205700E4908600A48083073
:101C9000006820F003000849083108600846006821
:101CA00040F00200086000BF03480830006800F000
:101CB0000C000828F8D10CBD00380240007000402C
:101CC00008544007003C0240042808D14FF0E021AE
:101CD000096941F004014FF0E022116107E04FF083
:101CE000E021096921F004014FF0E0221161704701
:101CF0007047000010B51548006840F470001349A3
:101D000008601348006840F0010011490860002095
:101D10000F49083108600E4800680E4908400C4918
:101D200008600D48091D0860081F006820F4802025
:101D3000091F0860002006490C310860FFF74EFFBC
:101D40004FF0006001498039086010BD88ED00E067
:101D500000380240FFFFF6FE1030002410B540F2BC
:101D600025511D4800F0DFF810B31B4800F094F92E
:101D7000C4B21A48008800F40040C8B91748008867
:101D800000F4804060B10A2C03D000201349088081
:101D900020E01248008840F400401049088019E013
:101DA0000D2C06D10D48008840F480400B49088076
:101DB00010E00A480088C0F30D0009490C54074898
:101DC0000088401C0549088008460088C72801DDB6
:101DD0000020088010BD0000001001400C00002011
:101DE0008011002010B540F225511D4800F09BF8ED
:101DF00010B31B4800F050F9C4B21A48008800F430
:101E00000040C8B91748008800F4804060B10A2C2F
:101E100003D000201349088020E01248008840F4D5
:101E200000401049088019E00D2C06D10D480088AB
:101E300040F480400B49088010E00A480088C0F355
:101E40000D0009490C5407480088401C05490880CA
:101E500008460088C72801DD0020088010BD00006A
:101E600000440040020000208009002010B540F22C
:101E700025511D4800F057F810B31B4800F00CF92D
:101E8000C4B21A48008800F40040C8B91748008856
:101E900000F4804060B10A2C03D000201349088070
:101EA00020E01248008840F400401049088019E002
:101EB0000D2C06D10D48008840F480400B49088065
:101EC00010E00A480088C0F30D0009490C54074887
:101ED0000088401C0549088008460088C72801DDA5
:101EE0000020088010BD00000048004000000020D5
:101EF000800D002021B1828942F40052828104E0E9
:101F000082894DF6FF731A40828170470246002095
:101F1000B1F5007F00D100BF13880B400BB1012049
:101F200000E00020704770B5024600240023002521
:101F3000002040F66A16B14200D100BFC1F342153D
:101F400001F01F03012606FA03F3012D02D1968941
:101F5000334006E0022D02D1168A334001E0968A12
:101F600033400C12012606FA04F41688344013B1EB
:101F70000CB1012000E0002070BDF0B50346002444
:101F800000260025002040F66A17B94200D100BFA4
:101F90001846C1F3421401F01F06012707FA06F59F
:101FA000012C01D10C3004E0022C01D1103000E0F2
:101FB00014301AB107682F43076002E00768AF4387
:101FC0000760F0BD2DE9FF4705460E460024A146F7
:101FD00000BFA046B08900B100BF2C8A24F4405451
:101FE000F08804432C82AC8941F20C608443B088B1
:101FF00031890843718908430443AC81AC8A24F4D5
:102000004074B0890443AC826846FFF771FD2048F4
:10201000854202D01F48854202D1DDF80C9001E0D4
:10202000DDF80890A88900F4004040B109EBC90030
:1020300000EB091031684900B0FBF1F707E009EB4C
:10204000C90000EB091031688900B0FBF1F764208A
:10205000B7FBF0F004012009642101FB1078A88986
:1020600000F4004040B1322000EBC800B0FBF1F0BA
:1020700000F00700044308E0322000EB0810642160
:10208000B0FBF1F000F00F0004432C81BDE8FF87A6
:10209000001001400014014001468888C0F3080088
:1020A0007047C1F308028280704700BFFEE703B4A7
:1020B00001984100009850EAC12018BF04204A0D41
:1020C00018BF40F0010040F2FF72B2EB515F08BF51
:1020D00040F00200012808BF052002B070473038E8
:1020E0000A2801D2012070470020704700BF7047C6
:1020F00010B504466FF00400FFF7E6FDE11704EBAE
:102100005171C1F3C701074A11701046007800EB06
:102110004001C1EBC0104FF6FF7101EAC000024957
:10212000088010BD040000200600002070B50446A1
:102130004FF4077094FBF0F0C6B24FF4077094FBB5
:10214000F0F100FB114085B205E04FF4077000F09C
:1021500009F8701EC6B2002EF7D115B1284600F05E
:1021600001F870BD0146114A12884A434FF0E0233E
:102170005A6100229A611A46126942F001021A61FC
:1021800000BF4FF0E022106900F001021AB100F424
:102190008032002AF5D04FF0E022126922F00102CD
:1021A0004FF0E0231A6100229A6170470600002078
:1021B0004FF4A060FFF770FCA820FFF799FF4FF4E1
:1021C000E13000F045F808E06322E82103A000F0C8
:1021D00013F84FF47A70FFF7A9FFF5E7D7A3B4F32C
:1021E000BCD232303231D0C2C4EABFECC0D62125D5
:1021F0006425630A000000000FB438B5C8211248F6
:10220000FEF7BBF805A800900F48009A0499FEF766
:1022100083F8002000900C48FEF790F885B2002467
:102220000DE000BF40210948FFF770FE0028F9D0FB
:102230000548015D0548FFF734FF601C84B2AC42DD
:10224000EFDB38BC5DF814FB4812002000100140A1
:1022500010B588B0044601210846FFF729FC01218A
:102260001020FFF735FC072209212248FFF7B0FBB9
:1022700007220A211F48FFF7ABFB4FF4C06006900E
:1022800002208DF81C008DF81D0000208DF81E0026
:1022900001208DF81F0006A91648FFF751FB029494
:1022A0000020ADF80C00ADF80E00ADF81000ADF850
:1022B00014000C20ADF8120002A90F48FFF782FEAF
:1022C00001210D48FFF716FE012240F225510A4870
:1022D000FFF753FE25208DF8040003208DF805003C
:1022E0008DF8060001208DF8070001A8FFF798FB84
:1022F00008B010BD000002400010014010B50029D8
:102300000AD00878002807D005487844FEF71AFF5D
:10231000002801D0002010BD0248784410BD000004
:10232000520100004A01000010B500290AD00878C7
:10233000002807D005487844FEF704FF002801D0A4
:10234000002010BD0248784410BD0000420100008A
:102350003A0100004FF04070E1EE100A7047FEF7BE
:1023600081BC00000000000000000000303132336A
:1023700034353637383941424344454640305800B9
:1023800030313233343536373839616263646566EB
:102390004030780004000008000000000000000247
:1023A000000100001000000002400000000000A03A
:1023B0000000000005400000000000C80000000010
:1023C0000C4000000000409C00000000194000008C
:1023D0000020BCBE0000000034400000BFC91B8EBE
:1023E00000000004B5400000504BCFD06607E2CF9C
:1023F000010000006C4100003E8251AADFEEA734CC
:1024000001000000D9420000DCB5A0E23A301F977D
:10241000FFFFFFFFB4450000FD25A0C8E9A3C14FA1
:10242000FFFFFFFFFF3F00000000008000000000F2
:10243000FF3F000000000080000000008825000829
:102440000000002020000000C4010008A8250008AA
:102450002000002050190000E00100081C000000CE
:1024600043000000F8FFFFFF0C0000000E0000001A
:102470000F0000002E0000001001000043000000CB
:10248000F8FFFFFF00404040404040404040414195
:102490004141414040404040404040404040404039
:1024A00040404040400502020202020202020202D3
:1024B00002020202022020202020202020202002D0
:1024C0000202020202029090909090901010101060
:1024D00010101010101010101010101010101010FC
:1024E0000202020202028888888888880808080890
:1024F000080808080808080808080808080808085C
:102500000202020240000000000000000000000083
:1025100000000000000000000000000000000000BB
:1025200000000000000000000000000000000000AB
:10253000000000000000000000000000000000009B
:10254000000000000000000000000000000000008B
:10255000000000000000000000000000000000007B
:10256000000000000000000000000000000000006B
:10257000000000000000000000000000000000005B
:10258000000000000000000000000000000000004B
:10259000000000000000000000000102030401022E
:0825A00003040607080900000E
:040000050800018965
:00000001FF
